:020000040800F2
:1000000000000110810504082F3F00081D6202084E
:100010003D0604083D0604083D06040800000000F3
:100020000000000000000000000000002D3F00085C
:100030002B3F000800000000293F000807B3030819
:100040003D0604083D0604083D0604083D06040874
:100050003D0604083D06040897B60308A7B6030842
:100060003D060408A3B603089FB6030859600008BC
:1000700045600008316000081D6000080960000844
:10008000F55F0008E15F00083D0604083D0604082E
:100090003D0604083D0604083D0604089BB6030817
:1000A000A17A00087D7A0008597A0008C57A00080C
:1000B000497A0008377A0008356100083D060408CF
:1000C0003D0604083D0604083D0604083D060408F4
:1000D0003D060408C17F00083D060408B57F0008FE
:1000E00093B603083D06040859630008E56000085C
:1000F000BD600008956000080D610008CD5F000834
:100100003D0604083D060408216100083D06040878
:100110003D0604083D0604083D0604083D060408A3
:10012000B95F0008A55F0008915F00087D5F0008C7
:10013000695F00083D0604083D0604083D06040802
:100140003D0604083D0604083D0604081B39000866
:10015000555F0008415F00082D5F0008AB7F000875
:100160003D0604083D0604083D0604083D06040853
:100170003D0604083D0604083D0604083D06040843
:080180003D0604083D060408D9
:1001880030B50E4BC40803EBD0021B5D00F0070529
:10019800AB40DBB20020C5F108048C4228BF0C46F6
:1001A800C4F108052B41A040091B40EA03004FF0A9
:1001B800000512F8013FEED130BD00BFC017002086
:1001C800012380F849307047034B986D18B1986D3A
:1001D800431F58425841704780170020064AD2E909
:1001E80017138B42FDD0D1180133C3F30A0391F8DA
:1001F80064001366704700BF80170020044BD3E9E2
:100208001730984288BF03F50063181A704700BF7B
:1002180080170020012070477047704730B5104C98
:10022800D4E917329A4286BF03F50065AA1A9A1ACA
:100238000A44B2F5006F11D801440022814203D16B
:1002480002B1E365002030BDE21810F8015B82F8C6
:1002580064500133C3F30A030122EFE70220F2E7F7
:1002680080170020064AD2F86438D2F868289342EA
:1002780094BF4FF400600020013B9B1A184470475C
:1002880080170020EEE7212838B50C461BD022281D
:100298002BD0202815D1A1B1072A12D1194DD5F894
:1002A8006C3813B10968002098472368C5F870387E
:1002B800237985F87438637985F87538A37985F8D2
:1002C8007638002038BD0029FBD0072AF9D10D4B1C
:1002D800D3F870280A6093F874280A7193F875287F
:1002E8004A7193F876388B71EBE70029E9D0022A36
:1002F800E7D1044BD3F87838002BE2D009880020E6
:100308009847DEE780170020014B0020986570476A
:1003180080170020044B002005229A65C3F878084E
:10032800C3F86C08704700BF8017002070477047FB
:1003380070477047704770477047042301480B8027
:10034800704700BF00000020122301480B8070474F
:1003580004000020044B41F2B4110122585C00B99A
:100368005A545A70704700BFE86400200378022B83
:1003780008D10E4B1A684368B3EB422F2CBF0120FB
:1003880000207047006970B1094B1B78032B0EBF22
:10039800084B80B24FF6F773984294BF00200120B3
:1003A80000F0010070470120FAE700BF087700203D
:1003B800E8640020F7FFFF0F074B1B78022B0BBFE9
:1003C800030AC0F3D413C0B200F07F000CBF0B6067
:1003D8000B601060704700BFE864002010B5037818
:1003E80041680F4A022B0AD141F20423D35802F57F
:1003F8009052106800EB430000EB512010BD0369D8
:1004080041F21020023B145841F2182010580840BD
:10041800400A04FB030041F20C23D3581844EDE7CB
:10042800E8640020837B042B0DD0074B41F2980130
:100438005A5801325A50426041F29C010422827398
:100448005A5801325A507047E864002008B5074BE3
:10045800C31A48BF03F2FF13B3F5805F4FEA632066
:1004680003D3FFF777FF4FF0FF3008BD006500208A
:1004780000487047A8170020034B93F8240003286E
:1004880094BF00200120704780170020034B93F889
:100498002400003818BF0120704700BF80170020D3
:1004A8000020704700207047002370B54D1C1E4681
:1004B800040FB0F1204F34BF3034373401F8134003
:1004C80005F813600133DCB2A2424FEA0010EFD8FE
:1004D80070BD1A2310B50B80094B186804331B68CC
:1004E800C0180AD0074B08491C680822FFF7DCFF30
:1004F800064904222046FFF7D7FF054810BD00BF74
:10050800E8F7FF1FEAF7FF1F180000202800002067
:1005180016000020042301480B807047300000209B
:10052800122301480B807047340000202DE9F04F5A
:10053800DFF8848185B0CDE90212B8F88A28D8F8A6
:100548007C48B8F886681302B8F88828E41A4FF08F
:10055800000E6EEB0E0EA2FB040102FB0E11C20987
:10056800B8F8840842EA4162CD1101045218A6FB8A
:10057800040106FB0E114FF00003B8F8826843EB44
:100588000505030AB8F88C0843EA0163F6039B19CA
:100598004FEA212CA0FB04674FF0000100FB0E7707
:1005A8004CEB010CF10D41EA472111F5FA604FEAD5
:1005B800E758009048F100000190DDE90067B6F5C2
:1005C800FA6F77F1000055DAA1FB016701FB08F02B
:1005D80007EB40070520A6FB00AB00FB07BB4FEA73
:1005E8005A0040EACB70121A4FEA9A004FEA6B069B
:1005F80040EA8B70DDE9009A65EB06051B1A4FEAA5
:10060800AB066CEB060C2B4E4FF0FF37B1457AEB7F
:10061800070023DA40F6AC5008184FF0000148EB09
:10062800010800FB08F8A0FB000101EB4801CE001F
:10063800C700C71B46EA507661EB06064FF00B0869
:10064800D21946EB0505A0FB086708FB017771087E
:1006580041EAC77178105B1A6CEB000C04FB0EFEC4
:10066800A4FB040101EB4E01C40F44EA41040099C4
:10067800091B0091029999B10F49D1F89048A4FB40
:10068800030104FB0C11430D43EAC1239A1A4FEAF4
:100698006154029B64EB0505D20B42EA45421A609D
:1006A800039B13B11A46009B1360012005B0BDE8F7
:1006B800F08F00BF24FAFFFF801700202DE9F041DA
:1006C800354DB5F8A248B5F89438B5F9AC08B5F980
:1006D8009C68B5F99AC8B5F9A6E8B5F9B4781B1BB2
:1006E800B5F8A0486343B5F9AA4800EBE330E40243
:1006F80094FBF0F404EBE334A4F57A6303FB03F012
:1007080003FB0CFC7343B5F9A468C5F8B0480013A3
:1007180000FB0EFE7043001400EB633002304FEA1A
:10072800EC2606EBEE26B5F89E38B5F998E8801069
:1007380000F50040434306EB8E064FEAD338BE402F
:10074800D5F8B83802364CF25030A3EBA60640FA7A
:1007580007F3734355BF5B00B3FBF8F3B3FBF8F340
:100768005B0079B1181200FB00F540F6DE306843F3
:100778000A4D00145D4300EB254000F6CF6003EB03
:1007880020130B6022B10A235C430834241114603F
:100798000120BDE8F08100BF8017002043E3FFFF80
:1007A8002DE9F74F704D9146D5F8BC48B5F8C028EB
:1007B800C2EB24135200C2EBE402B5F9C2485B4312
:1007C8006243B5F9C4481B135C43A41304EBE22449
:1007D800B4F5FA3E8846AEFB0E12CDE900124FEA98
:1007E800E473019AC5F8D84843F1FF3C0EFB0CF3BB
:1007F80002EB4303B5F9C828019302FB0CF1D317A8
:100808000EFB0311A2FB0E230B44190341EA1251FC
:10081800019E1003B5F9CA2802FB06FA009ED317F9
:1008280006FB03AAA2FB062353444FEA122A4AEA0C
:10083800036AB5F8C6284FEA232B1AEB00004BEBE6
:10084800010B00304BF5004BA0FB020102FB0B1122
:100858004A10CB1752EA030100F08480B5F9D0089A
:10086800019E00FB06F7009EC11706FB0177A0FB5F
:100878000601B5F9CE68394406FB0CFCF7170EFBE8
:1008880007CCA6FB0E6767444FEA474E4FEA464C33
:100898001CEB000C4EEAD63E4EEB010ED5F8DC18E8
:1008A800B5F9CC68C1F58011CF174FEAC77A4AEA83
:1008B800510AC807002111EB0C014FEAC60747EBA4
:1008C8000E0E40F63546401A6AEB0E0AA0FB0601EA
:1008D80006FB0A113FF070FCB5F9D6284E13470BFA
:1008E80047EAC14702FB06FCD31707FB03CCA2FB70
:1008F80007236344564307FB0366A2FB07233344DD
:10090800560E46EAC316B5F9D42836184FEA636777
:1009180041EB0707D317514300FB0311A2FB002348
:100928000B44D10C41EA4331D814761840EB070741
:10093800B5F9D208320A42EA076203011344B8F152
:10094800000F02D01B0AC8F80030B9F1000F05D01B
:1009580004EB840480342412C9F80040012003B059
:10096800BDE8F08F0023EAE78017002001207047D8
:10097800012070474FF40063838170474FF4006390
:1009880083817047F0B5234A87B013461446002781
:10099800012593F806E0A0EB0E0CC61BBCF1000F76
:1009A800B8BFCCF1000C002EB8BF7642B44503F1B5
:1009B800060305F10105BCBF4FFA8EF71C46102D42
:1009C800E7D100261378BB420CD1658853884D1BAC
:1009D800CB1A002DB8BF6D42002BB8BF5B429D42B9
:1009E800C8BF14460136102E02F10602EAD1637917
:1009F800049323790393638802932378064ACDE905
:100A080000130346032101203CF08CFB204607B06D
:100A1800F0BD00BF1C38040888A9040837B50A4D82
:100A280008240123686D00220DF107013BF0C8F886
:100A38009DF80730FF2B02D1012003B030BD013CE7
:100A4800EFD12046F9E700BF8017002073B5094EA3
:100A5800441C0025706D012300220DF107013BF0B5
:100A6800AFF89DF80700FF2802D10135A542F1D162
:100A780002B070BD8017002037B5104D00244FF626
:100A8800FF53ADF8043001AA02232146686D2C6299
:100A98003BF096F80120FFF7D9FFFF281FBF092375
:100AA80085F82430D5F8E0386B6105BF04230220AF
:100AB800204685F8243003B030BD00BF80170020E1
:100AC80037B5044608200191FFF7C0FFFF2811D071
:100AD800FE2811D1094D019B686D002221463BF08B
:100AE8006FF80022686D022311463BF069F8002078
:100AF80003B030BD0120FBE70220F9E78017002092
:100B080013B540F040038DF800300B0E8DF801301E
:100B18000B0C8DF802300B0A8DF803309523044630
:100B28008DF804108DF80530FFF778FF00B95CB92F
:100B380006480623406D6A4600213BF041F808202C
:100B4800FFF784FF02B010BDFF20FBE780170020ED
:100B5800104B70B51E4693F8E428002AFBD10446D2
:100B68004518AC4201D1002070BDD6F8683814F899
:100B7800011BF2180133C3F30A0382F8E518C6F81B
:100B88006838FFF76FFB0028EBD101203AF0ACFB87
:100B9800F7E700BF8017002038B50C461146FFF76D
:100BA80013FB48B1054D002AD5F8E03804DD20468E
:100BB800FFF7CEFFD5F8E03838BD00BF801700201A
:100BC80010B590F84810002380F8483061B1094CFE
:100BD800A26D5AB1A26D052A0AD13430D4F8E03892
:100BE800FFF7B6FFD4F8E038012010BD1046FCE747
:100BF8001846FAE780170020002280F84920DFE72E
:100C080090F84820531C0244DBB280F8483082F840
:100C1800341090F849200AB1132B00D9D0E7704757
:100C280008B5064B5B6D1A79022A06D19A689207B5
:100C380003D518693AF026FC00BF08BD80170020CC
:100C480010B5044C04480A4621463CF017FD2046DE
:100C580010BD00BF65280020C1A9040810B5044CC8
:100C680004480A4621463CF009FD204610BD00BF55
:100C780065280020CFA9040810B5044C04480A468A
:100C880021463CF0FBFC204610BD00BF6528002033
:100C9800DAA9040810B5044C04480A4621463CF079
:100CA800EDFC204610BD00BF65280020E4A904081B
:100CB80010B5044C04480A4621463CF0DFFC2046A7
:100CC80010BD00BF65280020E9A9040810B5044C30
:100CD80004480A4621463CF0D1FC204610BD00BF1E
:100CE80064290020F4A9040810B5044C04480A46F5
:100CF80021463CF0C3FC204610BD00BF64290020FB
:100D080002AA040810B5044C04480A4621463CF0DF
:100D1800B5FC204610BD00BF642900200DAA0408B8
:100D28000A4608B5044920B904483CF0A7FC024823
:100D380008BD0348F9E700BF6429002020AA040879
:100D480038AA0408F8B500220F232F2102203EF00C
:100D580094F8214A5065144610B982F82400F8BD69
:100D680000213AF04FFF4FF47A703AF0BDFA636D04
:100D78001A79022A06D19A68920703D500BF186922
:100D88003AF085FB0022606D144D154E0A2311467A
:100D98003AF016FF1427636D1A79022A07D0D4F89F
:100DA800E0386361012384F82430002312E093F9CA
:100DB8000C3007FB0363986C3AF0A0FD0028EED0D6
:100DC800013DE8D1606D3EF04BF8237E656584F8FF
:100DD800245001332376C2E780170020A186010042
:100DE8000000002070B5104C104E2546636D1A792E
:100DF800022A0CD06B6D1A79022A14D19A689207CC
:100E080011D500BFBDE8704018693AF040BB93F9AE
:100E18000C30142202FB0363986C3AF06FFD002833
:100E2800E8D000BFE2E770BD801700200000002076
:100E38002DE9F843164C94F82450042D06468946AB
:100E480090461F4615D1FFF7EBFEA37ED3B971027A
:100E58001120FFF755FEB8B90523C4E90096C4E987
:100E6800038784F82430D4F8E03863610120BDE8B2
:100E7800F883082D01D00020F9E7FFF7FDFD0228CF
:100E8800F9D1E0E73146E3E7FFF7ACFFF3E700BF4E
:100E980080170020054B93F8F321D3F8EC0102F0FA
:100EA800F702002183F8F3213AF096BD7828002054
:100EB80010B504460022212100683AF08DFD206813
:100EC800FC2220213AF088FD2068402224213AF0B3
:100ED80083FD20680C2223213AF07EFD2068002241
:100EE80022213AF079FD012010BD10B501220446F7
:100EF800102100683AF070FD48B114203AF0F4F976
:100F08002068A022BDE8104011213AF065BD10BD4F
:100F180010B524220446412100683AF05DFD80B1F5
:100F28002068202230213AF057FD50B1206806226F
:100F380031213AF051FD20B12068002234213AF0E5
:100F48004BFD05203AF0D0F9012010BD10B507225D
:100F580004460A2100683AF03FFD05203AF0C4F93A
:100F68002422412120683AF037FD05203AF0BCF9E7
:100F7800C022422120683AF02FFD05203AF0B4F94A
:100F8800012010BD10B5012204460B2100683AF07B
:100F980023FD20B120681D2209213AF01DFD00F033
:100FA800010010BD10B578220446002100683AF00F
:100FB80013FD05203AF098F92022012120683AF023
:100FC8000BFD05203AF090F90022022120683AF042
:100FD80003FD64203AF088F9012010BD0068012261
:100FE80048213AF0F9BC0068012258213AF0F4BCD3
:100FF800054B006893F8B4289201343202F0FC02E1
:10100800F4213AF0E9BC00BF8017002000682E22C6
:10101800F4213AF0E1BC08B53122F42100683AF035
:10102800DBFC012008BD30B5002385B00446C3862B
:1010380083630DF10702006802213AF067FC18B9D2
:101048000025284605B030BD9DF80730DB07F7D5E9
:10105800062302AA032120683AF08AFC20680DF1D1
:10106800070209213AF052FC05460028E8D09DF80D
:10107800073013F00C0FE3D19DF809209DF80830D4
:10108800206843EA0223C3EB83339B009DF80B20BF
:10109800E3869DF80A3043EA02239B009DF80D2061
:1010A80023879DF80C3043EA0223C3EB83339B006C
:1010B800638701220A213AF08FFCC2E713B50022A8
:1010C80004460A2100683AF087FC14203AF00CF92B
:1010D8000F220A2120683AF07FFC0A203AF004F92E
:1010E800032301AA102120683AF042FC0A203AF0B2
:1010F800FBF800220A2120683AF06EFC0A203AF038
:10110800F3F80DF10302206802213AF0FFFB0DF11C
:101118000302206809213AF0F9FB206801220A211C
:101128003AF05AFC012002B010BD1FB50446002356
:1011380000688DF807300DF1070227213AF0E6FB29
:1011480068B19DF8070010F0080008D02068062351
:1011580002AA28213AF00CFC18B9E086A06304B072
:1011680010BD9DF809209DF8083043EA02231BB200
:10117800002BB8BF03339B109DF80B20E3869DF826
:101188000A3043EA02231BB2002BB8BF03339B107B
:101198009DF80D2023879DF80C3043EA02231BB2EB
:1011A800002BB8BF03339B106387D8E71FB5002116
:1011B8000446C18681630DF1070200683AF0A6FB78
:1011C80008B39DF8073013F008031ED020680623E3
:1011D80002AA01213AF0CCFBA8B19DF808209DF89D
:1011E800093043EA0223E3869DF80A209DF80B3074
:1011F80043EA022323879DF80C209DF80D3043EA2B
:1012080002235B42638704B010BD1846FBE713B5A1
:10121800062304466A46006811213AF0A9FB18B96A
:10122800E086A06302B010BD9DF801209DF8003053
:1012380043EA02231BB207EE103AB8EEC77AF7EE7C
:10124800086A27EE267A9DF80320BDEEC77A17EEC6
:10125800103AE3869DF8023043EA02231BB207EEF8
:10126800103AB8EEC77A9DF8052027EE267ABDEE2B
:10127800C77A17EE103A23879DF8043043EA022311
:101288001BB207EE903AF8EEE77A67EEA67AFDEE23
:10129800E77A17EE903A6387C4E713B50023C3864D
:1012A80083630446062300686A4603213AF060FB1C
:1012B800E0B19DF801209DF8003043EA022303EBDA
:1012C80043039DF80320E3869DF8023043EA022396
:1012D8001BB25B4203EB43039DF8052023879DF86F
:1012E800043043EA022303EB4303638702B010BDD3
:1012F80030B5002585B00446C58685630DF1070223
:10130800006806213AF002FB00B39DF8073013F09D
:1013180004031DD02068062302AA29463AF028FBB8
:10132800A0B19DF809209DF8083043EA0223E3861E
:101338009DF80B209DF80A3043EA022323879DF885
:101348000D209DF80C3043EA0223638705B030BDB9
:101358001846FBE713B5044600680379022B0CBF57
:101368004321032106236A463AF002FB18B9E086B6
:10137800A06302B010BD9DF800209DF8013043EA3B
:101388000223E3869DF802209DF8033043EA0223F6
:1013980063879DF804209DF8053043EA02232387DC
:1013A800E7E707B5032301AA00213AF0E1FA9DF81F
:1013B80005309DF804001B0243EA00439DF806002F
:1013C800184303B05DF804FB08B50068FFF7E9FFB0
:1013D800024BC3F89008012008BD00BF8017002009
:1013E80008B50068FFF7DDFF024BC3F87C08012051
:1013F80008BD00BF8017002007B50323006801AAB5
:10140800F6213AF0B5FA88B19DF805309DF8042028
:1014180008491B0243EA02439DF806201343B1F929
:10142800B428C2F10802D340C1F8B83803B05DF857
:1014380004FB00BF8017002007B50223006801AA3B
:10144800F6213AF095FA40B19DF804209DF8053050
:1014580043EA0223024AA2F8943803B05DF804FB79
:101468008017002037B50623F7210068164C6A4616
:101478003AF07EFA1549E8B19DF801209DF8003050
:101488009DF80350120142EA03329DF8023042EA05
:1014980013129DF80430C1F8DC281B0143EA053318
:1014A8009DF8055043EA1513C4E97E23C1F8BC38FA
:1014B80003B030BDD4F8F831C1F8DC38D4F8FC31C9
:1014C800C1F8BC38F4E700BF782800208017002056
:1014D800F8B5016B0468354FB7FBF1F1054689B2E1
:1014E80090F82D00FFF74EFA4388B7FBF3F706464E
:1014F800AF63284607F0E6FA204600213AF082FB5F
:1015080080226B2120463AF067FA642039F0ECFE1D
:101518000722682120463AF05FFA642039F0E4FE99
:1015280000226B2120463AF057FA642039F0DCFE9D
:1015380001226B2120463AF04FFA0F2039F0D4FEF1
:1015480018221B2120463AF047FA0F2039F0CCFE2A
:1015580018221C2120463AF03FFA0F2039F0C4FE29
:1015680032791A2120463AF037FA0F2039F0BCFEBA
:101578007279192120463AF02FFA642039F0B4FE26
:101588001222372120463AF027FA0F2039F0ACFE14
:101598003821012220463AF01FFA0F2039F0A4FE24
:1015A80020460321BDE8F8403AF02CBB40420F002A
:1015B800F7B50568016B514FB7FBF1F1044689B2E5
:1015C80090F82D00FFF7DEF94388B7FBF3F70646DE
:1015D800A763204607F076FA002128463AF012FB66
:1015E80080226B2128463AF0F7F9962039F07CFEE4
:1015F8000322682128463AF0EFF9962039F074FE64
:1016080003226B2128463AF0E7F90F20002139F030
:1016180057FE10226A2128463AF0DEF90F200021F1
:1016280039F04EFE00226C2128463AF0D5F90F20F9
:10163800002139F045FE7279192128463AF0CCF993
:101648000F20002139F03CFE18221B2128463AF0D1
:10165800C3F90F20002139F033FE18221C21284637
:101668003AF0BAF90F20002139F02AFE102237216A
:1016780028463AF0B1F90F20002139F021FE012265
:10168800382128463AF0A8F90F20002139F018FE31
:1016980032791A2128463AF09FF90120002139F0C1
:1016A8000FFE032128463AF0ADFA206806236A4661
:1016B80043213AF05DF9A0B19DF800209DF8013072
:1016C80043EA022323849DF802209DF8033043EA6D
:1016D800022363849DF804209DF8053043EA022321
:1016E800A38494F92230013306D194F920300133D0
:1016F80002D1062039F07AFF03B0F0BD40420F0056
:10170800CA680B6810B513430468114A2240134392
:101718004A6913438A691343CA6913430A6A13431C
:101728004A6A13434A6B13438A6B134343F40033E7
:101738000360D1E90B344269234322F007021343C3
:1017480043610B6943604B6883608B68C36010BD5D
:101758003F801CF0F8B5AB4AAB4CAC4BC4E98032C7
:10176800022284F808224FF0A042C4F80C2202F5A5
:101778000062C4F8102202F58072C4F8182202F53B
:101788000072C4F85422A2F5F072C4F81C2202F5C3
:101798000072C4F85822A2F5F072C4F8202202F5AB
:1017A8000072C4F85C22A2F5F072C4F8242202F593
:1017B8000072C4F86022A2F5EC62C4F81422403228
:1017C800C4F8CC22C032C4F890222032C4F8942243
:1017D8002032C4F898222032C4F89C222032C4F85F
:1017E800A0222032C4F8A4222032C4F8A822203231
:1017F800C4F8AC2202F52262C4F8D02202F5805265
:10180800C4F8D42202F58052C4F8D82202F58052D6
:10181800C4F8DC224FF05022C4F8E02202F58052CE
:10182800C4F8E42202F580520125C4F8E82202F542
:10183800805284F80B52C4F8EC22A2F5E44200214D
:10184800C4F80C2304F5007284F8125384F81413B6
:1018580010460B46402680F81C11A0F822110131D1
:101868000429C0E9496380F81D5180F81F31C0F888
:10187800303100F12800EED100231946402082F8CB
:101888007433A2F87A330133042BC2E9DF0182F8FA
:10189800751382F87713C2F8881302F12802EED183
:1018A8004FF0A0435A489A6822F001029A60DA6819
:1018B80042F04002DA603CF04BF90025212363F343
:1018C800174594F809320BB145F4801594F80322B2
:1018D800D4F80C32012A9D6307D19A6822F03E01A0
:1018E80041F02A0161F307029A60DA68C2F30761DE
:1018F80021F0600141F0400161F31F62DA60D4F821
:101908000C2300201060D4F81022116860F3CC2159
:10191800116094F80B12012912D1116841F00301EA
:10192800116080225A6202F580029A6202F1401226
:10193800C3F804214FF4A072C3F80821C3F80C219E
:1019480010213448344D3CF0E1FB32483CF0C6FBF2
:10195800D4F8102200234FF0FF3113611E46536163
:10196800FF279161D36194F8010283422BD30023AE
:1019780004F515751E46FF27984231D1136994F86E
:10198800031243F480730129136104BF234B1363CB
:10199800D4F80C3200229A614FF0FF306FF0804289
:1019A8005A6158605A611E4A9A6100291D4A0CBF43
:1019B800102100210A4399690A439A619A6842F002
:1019C80001029A60F8BD55F8041B08680028ACBFEE
:1019D80000204FF09040086001330E618F60C2E72D
:1019E80055F8041BD1F800C0BCF1000FACBF4FF094
:1019F800000C4FF0904CC1F800C001330E618F60AD
:101A0800BAE700BF40004001782800200804010020
:101A1800842A0020782A0020902A002003018100CF
:101A28000008008008383C0010B5802104463BF0CF
:101A380040FE204600213BF03CFE2046BDE8104019
:101A48003CF0A6B84209012300F01F00032A03FA5C
:101A580000F008D0042A0BD0022A0DD1074B5A6C8B
:101A6800104358647047054B1A6C1043186470474C
:101A7800024B1A6B10431863704700BF00380240CE
:101A88004268034B9A420CBF95209620DAE700BFC4
:101A9800006002401D4B37B51D4D1E4C0822C3F88F
:101AA80088202B6B43F001034FF4C0522B63694627
:101AB80040F202332046CDE900233CF031FE636A50
:101AC80023F470436362636A43F420436362636A86
:101AD80023F470236362636A43F42023636235202E
:101AE80039F0A6FC00213CF099FE6B6C43F480436E
:101AF8006B646B6B43F080036B632B6A43F080531A
:101B08002B62054B01225A6103B030BD00E100E0B1
:101B18000038024000000240003C014010B5094A6C
:101B280092F8F43702EBC3040133DBB2042B08BF8D
:101B38000023090284F8F80782F8F437C4F8FC1780
:101B480010BD00BF78280020F7B5C34A92F82B389B
:101B5800C2F818082F2B0D4614463DD8192B08D863
:101B6800032B5BD0122B00F08B80002B44D020215C
:101B780019E21A3B152BFAD801A252F823F000BF3C
:101B8800D31C0008C71C0008771B0008771B000837
:101B9800C71C0008771B0008771B0008771B000884
:101BA800771B0008EF1C0008771B0008471D00087A
:101BB800771B0008771B0008891D0008771B0008A1
:101BC8007D1E0008771B0008771B0008771B00089C
:101BD800771B00087F1F00085A2BC8D10823A2F8DA
:101BE80040389E499E4A11F8010902F80109013B53
:101BF8009BB2002BF7D141E0D2F82438002BB6D1A4
:101C0800D2F83C3808469B689847002857D03A21B4
:101C18000220FFF783FF4FF0FF3553E0914B12226C
:101C280019460020013A12F0FF0203F8010BF9D11E
:101C380070230B700C2394F8F407CB7194F8423896
:101C4800984212D004EBC300013390F8F8578D7016
:101C5800DBB290F8FD5790F8FC070D73042B48731E
:101C680014BF84F8423884F842281223A4F8403874
:101C780094F82F38122B98BFA4F84038002521E09B
:101C880092F82C38DA0717D4D4F83C3894F82F286F
:101C9800DB6901EBC10503EB85052B79053393421D
:101CA80028BF13466F4AA4F84038002BE6D0013B02
:101CB8009BB2E95CD154F8E76B4D0723F2E70025A6
:101CC800A4F84058284603B0F0BD08236749644A81
:101CD800A4F84038013B11F8010902F801099BB248
:101CE800002BF7D1CAE75F4A0C2316460021013BB7
:101CF8009BB202F8011B002BF9D1D4F83C382846D6
:101D08005B686A4601A99847054600287FF47FAFBB
:101D18000823F370019B013B1A0E32711A0C727181
:101D2800F3711A0A02233372009BB2711A0C727291
:101D38001A0AF372B2720C23A4F84038C2E7D4F836
:101D48003C384B4A5B682846111D984705460028D1
:101D58007FF45DAFD4F84828424B013A110E197050
:101D6800110C5970DA70110AD4F844289970110EC0
:101D78001971110C5971110A9971DA710823DBE78D
:101D880094F84C386BBB94F92838002BBFF6EFAEAB
:101D9800D4F83C3808469B68984700287FF437AF4A
:101DA800B4F83238D4F82D28D4F848185BBA12BAE7
:101DB8009BB298188842C4F85028C4F8543800F2E6
:101DC800F180022184F84C18D4F844184A43C4F826
:101DD8005028D4F824284B439342C4F854387FF44D
:101DE800C6AED4F85468D4F83C08D4F84428D4F8DB
:101DF800501807694FF480539E4228BF1E46A4F826
:101E080040382846B6FBF2F3B1FBF2F29BB2154913
:101E1800B847002802DA11210420FAE63346114AAD
:101E2800D4F8180881213BF06AFCD4F85038D4F86B
:101E380054583344C4F85038D4F86038AD1B9E1B4E
:101E4800C4F85458C4F86068002D7FF417AF032312
:101E580084F84C3836E700BF782800209238040808
:101E6800137700200C7700207C3804088A3804088F
:101E7800BC30002094F84C38002B41D194F9283814
:101E8800002BFFF674AED4F83C3808469B68984798
:101E980000287FF4BCAED4F83C382846DB68984765
:101EA800054608B12721B3E6B4F83238D4F82D181E
:101EB8005BBA9AB209BAD4F84838C4F850188818E6
:101EC8009842C4F854286DD8D4F844385943534339
:101ED800D4F82428C4F850189342C4F854387FF42E
:101EE80046AEB3F5805F28BF4FF4805301212F4AD7
:101EF800D4F8180884F84C189BB23BF0B6FCE1E61D
:101F0800D4F85468D4F83C08D4F84428D4F85018C5
:101F18004769B6F5805F28BF4FF480562846B6FB60
:101F2800F2F3B1FBF2F29BB22049B847002801DA7C
:101F3800032171E7D4F85038D4F85458D4F8180865
:101F48003344C4F85038D4F86038AD1B9E1BC4F82D
:101F58005458C4F860681DB929463BF0CBFCB1E67B
:101F6800B5F5805F28BF4FF48055104AABB2012108
:101F78003BF07BFC82E694F82C389B0701D52421A2
:101F880011E0B4F83228D4F82D3852BA92B21BBAFC
:101F9800C4F85038C4F854281344D4F84828934255
:101FA8007FF68DAE2121052033E600BF0C77002097
:101FB8002DE9FF418046084615463AF095FA4FF458
:101FC8007A72002307460E463EF0F6F8B5F900305F
:101FD8003C2403FB0404314638464FF47A7200234C
:101FE8003EF0EAF8002796B24FF47A73C3FB046711
:101FF8003B46324601A83AF0EBF93A4B93F86A3877
:10200800012B09D0022B35D032463B4640463AF0E8
:10201800DFF904B0BDE8F0819DF80640E31E072B08
:10202800F2D8231F052B0DD9BDF8040021463AF03C
:102038007DF99DF8073098420ED0E11E18BF0121A6
:102048000029E1D02B883C332B80274BF6184FF022
:10205800000343EB0707D7E7032C03D19DF80810CB
:102068000039EBE70A2CCFD19DF80810B1FA81F1BD
:102078004909E5E79DF80640E31E082BC4D8231F4D
:10208800062BDFD9BDF8040021463AF04FF9032C9E
:1020980012D10E280ADC9DF80730984208D19DF825
:1020A8000810012994BF00210121C9E70738F0E78A
:1020B800B4BF01210021C3E70B2CA5D107280ADCF6
:1020C8009DF80730984208D19DF8081001298CBF67
:1020D80000210121B4E70738F0E7CCBF0121002136
:1020E800AEE700BF7828002080EE36002DE9F047E3
:1020F80090B0DDE9184A0D460746904600213C227B
:1021080001A899461A9E41F0DCFA344B02938DF8E7
:102118000450CDF834A0002D55D0022D55D0032DF4
:1021280055D0042D55D103232D4A02EB430393F8D0
:1021380078308DF805302B4B0394D3F8E0380697A8
:102148001C440123CDE904468DF83130B8F1000F65
:1021580006D04A46414607A841F0C8F88DF83090A5
:10216800DFF884C09CF8AEE80023BEF1010F0E939F
:102178001ED80DF1040ABAE80F009CF8AD683C249B
:1021880004FB06C404F50B640FC4BAE80F000FC4BF
:10219800BAE80F000FC49AE80700B6FA86F60EF1FF
:1021A800010E760984E807008CF8AEE88CF8AD6873
:1021B8003B6883B14B4642462946384610B0BDE8D5
:1021C800F0471DF0A3B92B46AEE70123ACE7022385
:1021D800AAE70023ADE710B0BDE8F087E43000209F
:1021E8001C380408801700207828002013B5012324
:1021F8008DF805304FF48073ADF8063003681B681E
:102208005B79044623B101A88DF804303CF026F927
:1022180023681B689B7923B101A88DF804303CF032
:102228001DF902B010BD031EB8BF2D2210B5B8BFEE
:1022380058420C46AEBF0A2201F8012B0A2239F097
:10224800F3FF00230370204610BD10B5084A002391
:1022580011461479844203D1142000FB031010BDE9
:1022680001330D2B02F11402F3D10020F7E700BF70
:102278009C380408054BB3F82C2AD3F8283A596936
:102288000A4214BF5A831A83704700BF7828002077
:1022980013B5094CD4F8EC010DF10702A02139F06F
:1022A80035FB18B19DF807309B0602D5FFF7E2FF12
:1022B800F0E702B010BD00BF7828002080F00101CF
:1022C800014839F07DB900BFA03200202DE9F04760
:1022D80089464168574D0F8A0B684FEAD71E90B060
:1022E800064692463F0900246001425B8EEAD21CF2
:1022F80087EA12120CF0030C02F007025CEA0202F1
:1023080040F090800544F560002D00F091802C7F0E
:10231800002C40F08D80B3F84420474F6FEA4242CA
:102328006FEA524292B2A3F844201A8892B242F05D
:1023380080021A804A793A444FF0010892F88401E1
:102348001A8C08FA00F080B292B222EA00021A84CB
:102358001A8C92B2104318841A8892B242EA080280
:102368001A802846FFF78CFB0A23AB83F1680846DE
:10237800FFF786FB314BCB600B7D8E6101A88DF892
:1023880004304FF48073ADF806308DF805803CF0CA
:102398003FF8F36898683BF0B3FFF3689868036800
:1023A80023F0010303603BF0ABFF3046CDE9014465
:1023B800CDE90344CDE90544CDE90744CDE9094415
:1023C800CDE90B44CDE90D440F9405F09AF94FF48B
:1023D800806307934FF480414FF48053CDE908316F
:1023E800736802901B8ACDF814A003F00F0307EB63
:1023F800830701A9D7F888310193402304934FF448
:1024080000330B93F368CDF80C909868FFF778F9D0
:10241800F3689A68136843F010031360404610B0DD
:10242800BDE8F0870134102C7FF45EAF00256AE721
:102438000020F4E7980000201C380408A96300086D
:10244800F0B5264D05F5496105F66842C5F8601CEA
:102458002349C5F84C1C85B00646C5F85C2C0021FC
:102468004FF478730131122922F8023BFAD11D4F3B
:1024780085F8301C42F6F8220023C7E902234020E1
:10248800194BC5F8503C1DF093FE044620B307F0E5
:10249800BDF9034694F9040095F8D71C00961C1E54
:1024A80095F8D63C14BF03220122002B0CBF07234A
:1024B8000623002914BF082100210B43CDE901237D
:1024C80040210A4A07F160031EF012FD0CB1C5F85D
:1024D800F80C003818BF012005B0F0BD782800209E
:1024E80015C40108A834002067C5010889D301086C
:1024F80070B50B4B0B4C0246A34201D3002070BDB4
:10250800587990420AD1187A884207D118681E79FA
:102518000579AE4202D10568AB42F0D00C33EBE747
:10252800C4FC040820FE0408642828BF642000EBCB
:10253800800070B5450064240026B5FBF4F4E4B2CD
:10254800F3B29C4212D80A2C0BD01420B5FBF0F041
:10255800C4EB84156638C4EB85052844C0B217F06F
:102568002FF80134E4B2092C05D970BD9F2017F06B
:1025780027F80136E4E79A20F1E770B50020FFF765
:102588009DFE094D01244FF4067655F8040B20B141
:10259800C680047201213CF041F90134042CF4D1C5
:1025A800BDE87040002089E6C439040870B50E4CB7
:1025B80005460C2694F8FC3C052B01D9002011E0B7
:1025C8005A1C06FB034384F8FC2CD3F8002DD107D2
:1025D800F0D51542EED093F9040D1EF077FC0028D3
:1025E800E8D0406870BD00BF78280020024B002268
:1025F80083F8FC2CDAE700BF782800202DE9F041A9
:10260800FCEEC07A0A4617EE901A0446D0F81480F9
:102618008769C669056A0123B0EE600A89B23AF093
:1026280088FEC4F81480A761E6612562BDE8F081E0
:1026380030B5264B10201C78A4F13002092A19461F
:1026480003F1010329D9214A00208B1A022B27DC28
:10265800002391422ED82E2C36D101310424002299
:102668000D7802EB8202303D5200092D92B298BFDC
:10267800521904F1FF349CBF013192B214F0FF04E7
:10268800EED164214A43124901FB03230622B3FB1E
:10269800F2F3104A02FB003001E00138CBD130BD23
:1026A80000EB800012F8013B40003038184400F07D
:1026B800FF00CAE703EB830312F8015B5B00303BC2
:1026C8002B4403F0FF03C4E70022DAE7C4350020F7
:1026D80040420F008096980030B5002351F82340FF
:1026E80052F82350641B40F823400133032BF5D1E3
:1026F80030BD30B50468E46985B02CB10DF10F0523
:102708000095A04705B030BD2046FBE708B507484F
:1027180030F08AFC064832F0E1FF064B93F85C2D56
:1027280012B1012283F85D2D08BD00BF50AA04082C
:102738005CAA0408782800202DE9F04F87B0DFF85C
:10274800A8B004910646174698460025002F07DBD7
:10275800AF4205D00135042DF8D107B0BDE8F08FA0
:10276800E02303FB05F9049B03EB090A1D4B002436
:102778009944B8F1000F01DBA0452ED139F8143087
:102788003AF81410CA1A5142514113F4006F03F079
:102798001F02C3F3441014BF56234823CDE9020394
:1027A800CDE900422B465A463046059131F00EFCE1
:1027B8003AF81430059913F4006F03F01F02C3F3BD
:1027C800441014BF56234823CDE90203CDE9004243
:1027D8002B465A46304631F00FFC0134702CC8D1D4
:1027E800B8E700BFD835002069AA04082DE9F04FE2
:1027F800354C364B364ADFF8E0900F4694F82419EA
:1028080089B0002908BF1A46804694F9251931482D
:1028180031F018F828343D460026002F52D095F89C
:1028280000B094F85C23E868B5F910C095F816E094
:102838005A45D5E901A343D1D4F8602352453FD185
:10284800D4F864239A423BD1D4F86823824237D122
:10285800B4F96C23624533D194F87213A1EB0E02DC
:1028680051425141CDE90230CDE904CECDE900BA5B
:1028780033464A464046079131F0A8FB079994F839
:1028880072330593B4F96C330493D4F86833039323
:10289800D4F864330293D4F86033019394F85C332A
:1028A80000934A4633464046013631F0A5FB3C2E9C
:1028B80004F1180405F11805AFD109B0BDE8F08F8F
:1028C8000021CFE73946DAE77039002083AA0408E7
:1028D800C3D7040886AA040895AA040870B51D4D34
:1028E80095F810332DED028B04460E4663B3D5F8E8
:1028F80018330360D5F81C33436095EDC58AD5F8C5
:1029080020338360DFED148A96ED000A80EE280AF2
:102918003EF0C2FB23681844206028EE288A96ED12
:10292800010A80EE080A3EF0B7FB6368184460604D
:1029380096ED020A3EF0B0FBBDEC028BA36818448A
:10294800A06095F8100370BDC0E900338360B7EE4E
:10295800008AD7E7703900202C7D8E3F70B51B4C5C
:1029680094F8105365B3D4F818630B68DFED186A50
:102978009B1B07EE103AB8EEC77A4B68D4F81C6375
:1029880027EE267A9B1B07EE903A80ED007A94EDAD
:10299800C57A8B68012AF8EEE77A27EE267A18BFFF
:1029A800D4F8202367EE877A18BF9B1AC0ED017A06
:1029B80007EE903AF8EEE77AC0ED027A284670BD45
:1029C8000023036043608360F8E700BF703900208C
:1029D8002C7D8E3F0C4608B505461DF0B7F92046FC
:1029E8001DF0B4F90020FFF769FC284638F0C2FC56
:1029F80060B10120FFF762FC284638F0B5FC0146BB
:102A0800204638F0BAFC0020FFF758FC204638F082
:102A1800B1FC0028E9D00120FFF750FC204638F02F
:102A2800A3FC0146284638F0A8FCDBE7F0B50546CC
:102A38000C4689B014220021204640F042FE2A6844
:102A48001D4E04A8C2F385510023054641FA03F739
:102A5800FF0744BF9F5D00F8017B0133062BF5D1CA
:102A6800164900230370C2F303200844C2F3053655
:102A780090F8BA018DF8180001F2C1110DF1190092
:102A880046FA03F7FF0744BF5F5C00F8017B013398
:102A9800062BF5D100230370C2F38343029306ABE0
:102AA800CDE90053064902F00F032046C2F3031292
:102AB80039F0E1FD09B0F0BDD03904081C3804082C
:102AC800ADAA04081FB5314901A84A7D58311BF049
:102AD80014FF0398019A80EAE073A3EBE07307EE12
:102AE800903AF8EEE77AF7EE086AC7EEA65A82EA55
:102AF800E273A3EBE27307EE103AB8EEC77A029BD3
:102B0800F4EEC75AF1EE10FA13DD83EAE371A1EB94
:102B1800E37106EE101AB8EEC66AF4EEC65AF1EE84
:102B280010FA06DD0028CCBF0020012005B05DF8B2
:102B380004FBC7EE265A83EAE371A1EBE37106EEC4
:102B4800101AB8EEC66AF4EEC65AF1EE10FA09DDAC
:102B5800F4EEE57AF1EE10FA04D5002ACCBF022093
:102B68000320E3E7C6EE265AB4EEE57AF1EE10FA52
:102B780009D5F4EEE57AF1EE10FA04D5002BCCBFB6
:102B880004200520D2E74FF0FF30CFE70000001007
:102B980030B5294CDFED296A94F85429D4F87859CE
:102BA80004EB4201013202F00F0284F85429244A4E
:102BB800B1F85639A1F8560992F8E41C92F8E52CB8
:102BC80007EE101AB8EEC77AC31A27EE267A2B44F6
:102BD800FDEEC77AC4F8783917EE901A07EE902AF6
:102BE800F8EEE77A1B0967EEA67AA4F87C39FDEEC1
:102BF800E77A204617EE902A91420FDD9BB29A425F
:102C0800D4BF9B1A00239942A6BFCB1A9BB20023BC
:102C1800A4F87C390B4617EE901A1A46B0F87C399E
:102C28005B1AC3EB8323521A93FBF2F282F30A0274
:102C3800A0F87C2930BD00BF7039002014AE2341B4
:102C4800782800202DE9F04F2DED108BDFEDB55AD7
:102C58008FB00223019004910D9202910393B0EE7C
:102C6800655A029BD908DA004B010893019B03EBD4
:102C7800411CCB0007936FF017034B43182000FB50
:102C880001F40CEB030728200C9407EB411600FB1A
:102C980001F43020F518069400FB01F4382005945F
:102CA80000FB01FA05EB4114019823444FEA011B8C
:102CB80003EB411800F1040E4FF00009DCED007A37
:102CC8001EED017AD7ED003AD5ED004A98ED003AAD
:102CD800D3ED002A77EE276A37EE677AD6ED007AC9
:102CE80033EEA76A73EEE73AD4ED007A34EEA74ADA
:102CF80074EEE77A72EE834A36EEC48A36EE640AD8
:102D080076EE846A36EE246A72EEC32A76EE864A36
:102D180076EEC66A4EED014ACCED006ADEED004A59
:102D28009CED016A97ED014A95ED013AD8ED011A3B
:102D380074EE866A34EEC66AD6ED014A34EE242A69
:102D480034EE644AD4ED014A33EE241A73EE644A31
:102D580093ED013A73EE210A33EE613A76EEC11A29
:102D680076EE816A32EE601A32EE202A76EE820A18
:102D780076EEC26ACEED000ACCED016A78EE016A01
:102D880038EE412AC5ED006A71EEC06A84ED002A6A
:102D9800C5ED016A70EE216A34EE432AC4ED016A7A
:102DA80073EEA26A73EEE21A34EE034AF0EE673A63
:102DB800E6EEE53A94441544E6EEA57A14449644C2
:102DC800F0EE462AF0EE466AB0EE646AA4EE256A92
:102DD800B0EE473AA1EEA57AE2EE652AE2EE256A60
:102DE800B0EE642AA1EEE53AA4EE652A77EE064A2B
:102DF80037EE467AC7ED004A88ED007A33EE027A5C
:102E080033EE423A86ED007A36EEE77A77EEA67A26
:102E180083ED003A87ED017AC8ED017A72EEE37A24
:102E280073EEA23AC6ED017AC3ED013A02988144E5
:102E38000498484517441644134490443FF63EAF5F
:102E4800072940F273810198089B03440B93079B61
:102E580003440A93069B034409930BEB000308936E
:102E6800059B034407930C9B034406930AEB00035A
:102E7800059301240023039803440D9800EBC30530
:102E8800D5ED001A05EBC30595ED008A05EBC305E2
:102E9800D5ED004A05EBC30595ED009A05EBC30592
:102EA800D5ED003A05EBC3056FF02F00D5ED000A0C
:102EB80005EBC305D5ED002A00FB0355019895EDF8
:102EC800011A00EBC40A0B9800EBC4090A9800EB3E
:102ED800C408099800EBC40E089805EBC30500EB7D
:102EE800C40C0798D5ED018A05EBC30595ED014A99
:102EF80000EBC40705EBC3050698D5ED019A05EB71
:102F0800C30595ED013A00EBC40605EBC30505982A
:102F180095ED010A05EBC30595ED012AA34600EBE3
:102F2800C40501E0F304353FD9ED007AD8ED006A15
:102F38009EED007A9AED00AA9CED00BA96ED00EAA3
:102F48003AEE276A36EEC7DA3AEE67AA76EE877A5D
:102F5800D7ED006A3BEE267A3BEE66BAD5ED006AFD
:102F68007EEE26AA36EE47FA77EEEAEA36EE076AEA
:102F780077EEAA7A3EEE66EA36EE277A76EE67AA0A
:102F88008AED007A9AED016AD9ED017AD8ED01CA85
:102F9800DCED016AD6ED01FAD5ED01DA36EE277AD5
:102FA80076EE67BADEED017A3CEEA76A7CEEE7CAF8
:102FB800D7ED017A36EEA7CA76EEE77A7FEEAD6AEC
:102FC8007FEEEDDA77EE4CFA37EE0CCA36EE667A1B
:102FD80036EE266A7FEE076A3FEE477A3CEE06FA3F
:102FE8003CEE46CA8AED01FA29EE8C6A3FEEEEFA0B
:102FF800A9EE2A6A92447EEEAFEA89ED006A2AEECB
:10300800E96A7DEE4EAAA9EE0C6AB0EE4ACA89EDCD
:10301800016A28EE8F6AAAEEC5CA9144A8EE266A0C
:1030280066EEE86A8CED006AE8EE0F6A3CEEED6A3F
:10303800CCED016A60EE2E6AAAEE85AA9444E0EE11
:10304800876A27EE407AC7ED006AA0EEAE7A7DEE79
:103058000E6A87ED017A3CEEAD7AF0EE6BCAE6EEC9
:1030680005BA1744E6EE45CAB0EE6B6AF0EE67BAE9
:10307800E7EE45BAE7EE057AF0EE4BAAA6EE85BA7A
:103088003CEE2B7AE6EEC5AA7AEE276A7AEE677AE4
:103098003CEE6BAA36EE4BCA3BEE066A61EE0CBA02
:1030A8003CEEEABAE1EEA6BA66EEC16AC8ED00BA2D
:1030B800E1EE8C6A7AEEACAAC8ED016A62EE066AA5
:1030C8009044E2EEA76AC5ED006A67EEC26A63EE55
:1030D8000B7AE2EE866AE3EE877AC5ED016A27EE9F
:1030E800437ACEED007A64EE2A7AA3EE8B7A154401
:1030F800E4EE8A7A8EED017AC6ED007A6AEE447AB9
:103108009644E4EEAA7AC6ED017A029883440498BC
:10311800584516443FF608AF0134A1427FF4ABAEE0
:10312800039BDB009BB2CDE902139AE50FB0BDEC1F
:10313800108BBDE8F08F30B5194DD5ED1A7A89B0EE
:10314800F1EE677ACDED057AD5ED1B7A0023009371
:10315800F1EE677A0B680193CDED067A4B68D5EDF1
:103168001C7A02938B68039304466B6E0493F1EE0A
:10317800677A6A4604A96846CDED077A21F0B4FD5E
:10318800694605F16402084621F0AEFD019B236003
:10319800029B6360039BA360204609B030BD00BF5B
:1031A8000000001038B502782DED088B30EE609ADB
:1031B800D0ED01AA044669EE2AAAF0EE409AF0EE94
:1031C800418AB0EE618AB0EE42BA0D4601F00103C1
:1031D8004AB1002B0CBFF0EE607AF0EE497A00227B
:1031E800C0ED0B7A0270D4ED0B7A002B60D079EE2B
:1031F800677AF0EE490A87EEA80AC4ED0B0AD4ED07
:10320800090A94ED03AAF5EEC00AF1EE10FA05DDFD
:10321800B0EE681A04F1180037F00CFBD4ED057A0B
:1032280094ED0A7A69EEA79A20EE0A0A7AEE877A6E
:1032380077EE807A77EEA97AF4EEC87AF1EE10FA92
:1032480008D4F4EECB7AF1EE10FAD4BFB0EE678A68
:10325800B0EE4B8AD4ED026A94ED046AC4ED0DAA6F
:1032680029EE269AF0EE476AE8EE896A6B0778EE4F
:10327800677A84ED0C7A67EE867A84ED0E0AE8EEBA
:10328800A76AC4ED0F9A84ED108AF0EE667A08D525
:10329800F0EEE66AB0EEC77AF4EEC76AF1EE10FA1D
:1032A80001D5C4ED0A7AB0EE480ABDEC088B38BDEA
:1032B80070EEE77AF1EE677A87EEA80A9DE710B517
:1032C80088B0002300930B6801934B6802938B68C6
:1032D80014490393D1ED1A7A4B6E0493F1EE677A91
:1032E800CDED057AD1ED1B7AF1EE677ACDED067A50
:1032F800D1ED1C7A0446F1EE677A6A466431684675
:10330800CDED077A21F0F0FC694604AA084621F0C1
:10331800EBFC019B2360029B6360039BA360204638
:1033280008B010BD0000001010B51E4C94ED1A0A2C
:10333800D4ED197A20EE000AA7EEA70AD4ED1B7A7D
:10334800A7EEA70AD4ED1C7AA7EEA70A3EF0D4F997
:10335800DFED157AB4EEE70AF1EE10FA08D54FF072
:103368007E5363660023A366E36623670F4810BD98
:1033780094ED197AC7EE007A94ED1A7AC4ED197AA9
:10338800C7EE007A94ED1B7AC4ED1A7AC7EE007A7C
:1033980094ED1C7AC4ED1B7AC7EE007AC4ED1C7A52
:1033A800E4E700BF00000010BD3786356400001058
:1033B80030B51C7814B1012C05D030BD9A78027054
:1033C800DB780B70F9E7B3F9024052B1157B94FB37
:1033D800F5F40470B3F904302AB1527B93FBF2F38D
:1033E800EFE70C25F3E71222F8E730B51C7814B1A3
:1033F800012C0FD030BD9D7842B1147B6C43046022
:10340800D8782AB1537B43430B60F3E70C24F5E7E4
:103418001223F8E7B3F902200260B3F90430F3E7A6
:103428002DE9F0412DED028BDFF8708084B0044661
:103438000D4616461F4613460A460146D8F8800927
:10344800B0EE408A38F0B4F99FED130A9DF8303099
:10345800019728EE000A0022FDEEC07A009217EECE
:10346800901A02A80EF09CFF9DF8340022F0E6FCAA
:10347800074630463CF0AEF8631C19180097D8F898
:10348800800902AB2A46C9B238F056F904B0BDEC3F
:10349800028BBDE8F08100BF0000C84270390020EF
:1034A80070B50D4C06460D4613460A460146D4F83B
:1034B800800938F003FA94F9843904EB43020133A4
:1034C8005BB2272BC8BF002382F8856982F886592A
:1034D80084F88439012070BD703900202DE9F34744
:1034E800284C1F46FE2384F8D73994F8EC3A84F820
:1034F800D939013384F8EC3A4FF6FF73164684F84D
:10350800D82984F8DA0984F8DB19ADF806300625DD
:1035180004F6D818013DADB23DBBDFF87080BDF8A8
:10352800063094F8D859A4F8D5394FF6FF79A8F1A0
:10353800080A013DADB24D451ED13846124906F084
:1035480017FE94F8D839B4F8D529234406F10800B1
:1035580083F8DD2994F8D839B4F8D5292344120A18
:1035680083F8DE2902B0BDE8F08718F8010B0DF1E9
:10357800060106F0FDFDCDE718F8010B514606F0EF
:10358800F7FDD6E770390020454300204D43002061
:1035980017B48DF805308DF804200A4BBDF80420C7
:1035A8009DF81040A3F8DD292F2283F8DC2983F841
:1035B800DF49032299238DF8064003B05DF8044BD8
:1035C8008CE700BF70390020054991F8192B0023BA
:1035D800042A036028BF042201F61E313FF086BE8C
:1035E8007039002010B4074991F8192B0024048081
:1035F800022A5DF8044B28BF022201F61E313FF073
:1036080075BE00BF70390020F8B5204C1D270E4646
:10361800054684F8267C1CF081FA00201CF00AFA82
:1036280008201CF007FA0E201CF004FA38461CF09B
:1036380001FA04201CF0FEF904201CF0FBF900201C
:103648001CF0F8F930201CF0F5F900201CF0F2F914
:1036580030461CF0EFF900201CF0ECF91CF03EFAA3
:1036680004F627401CF04EF9234670B194F8272C35
:1036780052B994F8282C302A00D02AB993F8292C6A
:1036880012B993F82A3C2B700120F8BD703900203C
:1036980010B50246041D0020A24200D110BD12F848
:1036A800013B0821584010F0800F4FEA400318BF33
:1036B80083F031030139D8B2F5D1EDE7094A002387
:1036C8001046117831B19178802903D1682202FB24
:1036D800030070470133102B02F16802F1D100207A
:1036E800704700BFA84500202DE9F743104D95F815
:1036F800C04107468846CCB905F5E276A14605F5EE
:103708008B65306858B137F015FE40B1CDF80090A0
:10371800334642463946B6201BF0A4FE0446DC3642
:10372800AE42EED1204603B0BDE8F0830024F9E7AD
:10373800684A00200F4B062230B483F85A2424220A
:1037480083F85B2483F85C24002283F85D240A4A0A
:1037580003F25E4102F1240452F8045B41F8045B71
:10376800A242F9D1032230BC83F8600483F86124B3
:103778000DF0F8BA684A0020E3390408F0B5144C93
:10378800014600200246264607464FF00A0CA318B9
:1037980093F84C3D03B9F0BD2E2B06D10132002918
:1037A800F9D0A3180B4483F84C7DB3180CFB00F038
:1037B80093F84C5DA5F13003092B9CBFA0F13003B1
:1037C800E8180E2A01D80132E1E70020E3E700BF3C
:1037D8007828002010B50A4C04F6281009F06AFB76
:1037E800D4F83439C01A39F0C9FA0028B8BF4042B1
:1037F80042F210739842D4BF0020012010BD00BFD0
:1038080070390020F8B5144C0546D4F89C040379A7
:103818001E3B012B02D9002137F0AFFD0F4F0026C8
:10382800AE42D4F89C0410DB002137F0A6FD0C4B07
:10383800D3F8E038C4F8C0340A4B00225A60B4F810
:10384800C8340133A4F8C834F8BD17F8011B37F0A1
:1038580094FD0136E4E700BF684A0020084F0020C5
:1038680080170020284F0020F0B59C0827010E463D
:10387800154600EB0414A04206F1100605F11005E8
:1038880008D103F0030339443A4404EB83039C4210
:1038980023D1F0BD84469CED006A16ED045AD0EDA4
:1038A800016A56ED037A90ED027A56ED025A26EE39
:1038B800056A66EEA76AD0ED037A05ED046A16ED8F
:1038C800016A45ED036A27EE257A67EE867A10309D
:1038D80005ED027A45ED017ACDE7F4EC017AB1EC19
:1038E800017A67EE877AE2EC017AD0E710B51C20FE
:1038F80037F09EFD112104463AF090FF204637F03C
:10390800C1FDC82037F0F0FC2046BDE8104037F074
:10391800BEBD2DE9F04FB54CD4F80C325A69D70723
:103928008BB000F199825A699B691340009300F0AB
:103938009382C3F307430193009B1E0310D5D4F869
:103948001032DFF8B0929E69DB6904F500771E40FB
:10395800360CBB464FF00008BA46002E40F00181F5
:10396800019B5D070ED5D4F81032A14E9F69DB6923
:103978001F40BFB235464FF00008A6F50079002F6A
:1039880040F04081009B9DF80060990741BF974B2C
:10399800D3F80C3202225A61009B002B1BDA934B9E
:1039A80093F80A223AB1D3F80C23136823F00301E1
:1039B80061F307031360D4F810228D48536823F08D
:1039C800010353608B4BD3F8B0329847D4F80C32CC
:1039D8004FF000425A61009B1A05C3F307252FD503
:1039E80000238DF8173094F812338DF81730814B77
:1039F8007F48D3F8AC329847D4F80C22D4F8103268
:103A08004FF400619B68516194F80A22C2B1DB0748
:103A180016D594F81533012B12D19DF81730032BC6
:103A28000ED1D4F80C331A6842F001021A601A68F1
:103A380042F003021A60704A136943F006031361E7
:103A480037070AD5694F6B4B07F50070D3F8A432D6
:103A58009847D7F80C3208225A61F60614D5D4F8DC
:103A68000C02836923F010038361036AC3F34341A3
:103A7800022903F00F0200F07F81062900F0A481DB
:103A8800836943F010038361E80633D5D4F8102224
:103A980057485368002623F00103536031463AF033
:103AA80035FB94F801C2554A37463346FF20634533
:103AB800C0F09881D4F810324D484FF0FF329A6127
:103AC8004FF00112DA610B2262F3070662F307076F
:103AD8005E611F611A686FF30A121A603AF058F8AB
:103AE800D4F80C3242484FF480525A61414BD3F813
:103AF800A8329847A90640F191813C4AD2F8103281
:103B0800D2F8180299680268C1F34101022906BF78
:103B1800032161F30A026FF30A0202605A6842F451
:103B280080725A6006A83AF0ABFCD4F80C12D4F8AC
:103B38001002CB68079A6FF38D23CB6085683048F5
:103B4800C5F34105284490F8EB01032840F0518162
:103B5800002284F802224FF40072A4F804220922F9
:103B680056E1F5073BD55FFA88F104EB8103D3F8FA
:103B780054329D68D4F810325B691D40E80720D59F
:103B880094F803027B6D0125A8429D6007D118694E
:103B9800DBF87C33C0F312001B1ACBF88C33D9F84E
:103BA80098325046984794F80332012B09D1B8F15E
:103BB800000F06D194F81133052B02D1504639F085
:103BC800E7FFAA0742BF7B6D02259D602B0706D53C
:103BD800D9F8A032504698477B6D08229A6008F1C0
:103BE8000108760804370BF1280BB6E67828002080
:103BF800782A00200000002000ED00E0902A002034
:103C08001C380408F80775D5D4F810325FFA88FA1A
:103C18001969586B04EB8A0220FA0AFBD2F81822B9
:103C28004FEACB1B92685FFA8BFB4BEA010B0BEA5E
:103C3800020B1BF0010F1ED05A6BA8484FF0010B66
:103C48000BFA08F122EA01025A63B369C3F808B013
:103C5800A34B5146D3F89C32984794F803325B45FE
:103C680009D1B8F1000F06D194F81133042B02D111
:103C78009A4839F08DFF1BF0080F1EBFB3694FF04B
:103C8800080BC3F808B01BF0100F1EBFB3694FF044
:103C9800100BC3F808B01BF0400F1EBFB3694FF0FC
:103CA800400BC3F808B01BF0020F1EBFB3694FF0FA
:103CB800020BC3F808B01BF0800F1BD0D5E94C32BB
:103CC8009B1AD5F82421D6F818E0D9F810B2DEF8F6
:103CD8001800934228BF134603330AF1320A9B089F
:103CE80009EB8A0A80B2984204D9D5E94C0290427D
:103CF80000D928B908F101087F08043628353EE6BE
:103D0800D5F82431801A984228BF184699F803221A
:103D1800C31C9B08E2B1D5F82811D5F83421014419
:103D2800C5F82811D5F8301102448A42DEF8180087
:103D3800C5F83421D6D195F81C11DBF834204FF0A2
:103D4800010C0CFA01F122EA0102CBF83420C9E790
:103D5800D5F82811029181B2033189100391DAF85C
:103D680008128C4603999142D5D0029951F8221035
:103D7800CCF800100132F5E747F6F07119423FF42C
:103D88007FAE282101FB0241C3F30A13DE1CD4F8DD
:103D9800D0C2D1F88075B61000218E420ED1514E96
:103DA800282101FB0262D2F880151944C2F8801557
:103DB800D2F88C150B44C2F88C3561E6DCF800E0CB
:103DC80047F821E00131E8E7D4F8D0120E68C4F8CA
:103DD800CC670968C4F8D017282101FB0242C3F355
:103DE8000A13E5E752F8041B8860916B0133886079
:103DF8005DE6012084F802024020A4F80402A0F540
:103E08006400394CA0F562401044A04227D80E2225
:103E180062F38D23CB604FF400534B61019BDA06AC
:103E28000BD5304C2E4B04F50070D3F8B4329847BC
:103E3800D4F80C324FF480125A61019B9B060BD5C3
:103E4800284C274B04F50070D3F8B8329847D4F8BB
:103E58000C324FF400125A610BB0BDE8F08F234CBE
:103E6800A2F57400A0F51050A04201D80D22CFE7AA
:103E78001F48204C1044A04201D20C22C8E71E4C17
:103E8800A2F18C70A0F54340A04201D80B22BFE7F5
:103E98001A481B4C1044A04201D20A22B8E719481C
:103EA800194C1044A042FFF45AAE184CA2F1B77056
:103EB800A0F55850A04201D20822A9E71448154C91
:103EC8001044A04201D20722A2E713481044134A23
:103ED800904234BF062205229AE700BF782A0020C4
:103EE80000000020782800203F420F00DFC81000A3
:103EF8002013FBFE20D61300FF69180000D3CEFE66
:103F080040771B00C05BB3FEC091210040AC270086
:103F1800C01D6AFE40E13300803C36FEE09C410053
:103F28007047704770477047F8B54FF0FF312E4A19
:103F38002E4C0D460023907A04280BD103F581708E
:103F480004EB0010C079C70704D46E1C10682FD08A
:103F580088422DD30133082B02F11002EBD16B1CE0
:103F680040D0224C224F05F5817604EB0613998840
:103F780049B1D7F8D83433B104EB051041F218022F
:103F88009B6880589847D7F8D834A3B11949DF6897
:103F9800194A04EB051C41F2180000235CF80000E4
:103FA80001EB4521B84730B1022811D00020F8BDF7
:103FB8001D460146CEE741F29C02A358013BA3509F
:103FC80004EB06140323A3710C4B01221A70EDE7CE
:103FD80041F29C02A358013BA35004EB06140123B1
:103FE800A371E3E70120E2E704750020E8640020FC
:103FF800684A0020006500204B48000888750020AA
:1040080090F91A305A1C0AD003F58172124B03EB4F
:104018000213DA796FF30002DA71FF23837690F9DD
:104028001B104B1C16D00C4A01F5817102EB0113D1
:1040380002EB0112DB79D179C3F34503012B86BF6B
:1040480003F1FF3303F03F03002363F34601FF232B
:10405800D171C376704700BFE864002012F0020CEB
:104068002DE9F84F894690469B4600F0C08000280D
:1040780040F0BD80FCF76EF9022760E04FF0FF3298
:10408800664F96461546924600263B68B97B98428D
:1040980018D1002900F0928041F298013546625803
:1040A8000132625006F581710901625005F5817689
:1040B80004EB06129779042FDCD8DFE807F02A57BB
:1040C800AD57610009B3012910D106F5817104EBE0
:1040D8000111C979CB0709D411F07E0F06D1CB099C
:1040E80015D1B9688A4501D9B6468A460136082EDF
:1040F80007F11007C9D1511C77D16B1C5FD1BEF1F4
:10410800FF3F00F08980754659E03246EEE73546B4
:10411800ECE718F0010215D0414BD3F8D834002B46
:104128007AD04049D3F804803F4A002301EB452167
:10413800C047002870D004EB06140223A371384648
:10414800BDE8F88F04EB06114FEAE800CF79BBF120
:10415800030F60F3C717CF712ED94FF6FF7293453F
:104168005B4628BF134604EB06129380BCF1000F90
:1041780006D004EB051000F580501830FCF752F912
:1041880018F0040F1FBF04EB0612D37943F00103A4
:10419800D37118F0100F08D004EB0614E379C3F3B9
:1041A8004502013262F34603E3711E4901EB4521E2
:1041B800C9F800100127C2E71346D4E7354604EBD7
:1041C800051141F2980641F218028850A2590132AD
:1041D800A25141F21C068A5105F581710E0104EBCA
:1041E8000111A25100224A6060E71546E7E70F492E
:1041F80041F208220C468A58002A3FF43FAF41F2A8
:10420800102541F20C264D59895905FB021290429E
:10421800FFF434AFFCF79EF8002790E70075002004
:10422800684A002000650020C9520008E8640020A0
:104238007FB5104D02AA0C4601A9FCF7BDF805F59B
:104248009053019E18680122002303A93044FFF708
:1042580005FF01280BD1DDE902232978022916BFC1
:1042680053F8223033F8123023F07043236004B03F
:1042780070BD00BFE864002037B50446C0690D462C
:1042880098B10023032201A9FFF7E8FE012806D10F
:10429800B4F92030002B0ADAFCF75CF8022003B0EE
:1042A80030BDE5255554A2680BE00120F7E7019AD7
:1042B800012D4FEA431102EB4313F4D0022DF0D045
:1042C800E268DA612278032A04D100221A775A7741
:1042D8009A77DA77626A5A83C2F30F419982DEE7E6
:1042E8007FB50E4D01AA0C4602A9FCF765F805F545
:1042F8009053029E18680322002303A93044FFF755
:10430800ADFE012808D12978039B019A02290CBF28
:1043180023F8124043F8224004B070BDE86400203E
:10432800034B1B78032B0CBF80204FF48070704721
:10433800E864002008B50B4A68B1816811B1072309
:10434800937008BDFFF7ECFF0423C2E90100C2E93E
:1043580003111175F4E741F2B4110123535453705A
:10436800EFE700BFE864002008B5FFF7D9FF034A6C
:1043780041F21023D3585843400208BDE864002096
:104388002DE9F0470D4686B0164604A903AA07464C
:104398002868FCF711F8374A0499136801EB0308F9
:1043A800039B013B9C19FFF7BBFF2B68E41A0444ED
:1043B800A2F5905AB4FBF0F408EB04092968B1425D
:1043C800A9EB080303D3012006B0BDE8F087039AE0
:1043D80001939419641AFFF7A3FF8442019B28BF35
:1043E8000446002A37D1A04294BF0A220B2205A90D
:1043F8004046FFF733FE0128E6D19AF800002A6804
:104408000599039B022802F101022FD1A34224D36C
:104418002B68039A9B1A2344012F2B6016D1B342B1
:1044280014D19AF80030022B0BBF04F1004404F1B8
:10443800804304F1FF3403F1FF330BBF4FF6FF73E2
:104448004FF0FF3221F8143041F82320002308F1FF
:1044580001080393B2E70B22C9E721F813200133BF
:104468000132D3E741F8232001330132A342F9D3C3
:10447800CEE700BFE87600202DE9F7430029414E3A
:10448800414C074614BF0225002597F83C30042B01
:104498006AD8DFE803F02603333D5E00DFF8F080DA
:1044A8003378386B032B4ED1404594BF4FF0000949
:1044B8004FF00109B9F1000F43D101A9FFF7B8FE88
:1044C80001285CD1386B4946FFF70AFF012856D10D
:1044D800019B3B632268013B934294BF23602260A7
:1044E800DEE729463846FFF7C7FE012803463DD1D7
:1044F8007A6B02B1022387F83C30C6E77A6B07F182
:1045080030010020FFF73CFF01282FD10323F2E7F9
:104518001E48FA6A036802609A1AC36F534350F838
:104528001C2C02EB432240F81C2C50F8182C02EBF0
:10453800432340F8183C00212438FFF79DFE01284A
:1045480014D10423D7E71FFA80F94FF6F77399457A
:10455800ABE797F82830042B04BF002387F82830EE
:10456800BB6B0BB138469847012008E0022806D1FA
:1045780097F82830042B02D1002387F8283003B09D
:10458800BDE8F083E8640020FC7600207C760020FB
:10459800F7FFFF0F2DE9F0412E4D044600F13007DB
:1045A80005F1240694F83830032B51D8DFE803F0DE
:1045B800022E363F31682161FFF7D6FEE368DFF847
:1045C80098801844E060FFF7ABFE08443060FFF7BE
:1045D800CBFED8F80030181AC8F80000FFF7C4FE60
:1045E800D8F80430181AC8F804002163FFF798FEB9
:1045F800E36A0844606323B96162012384F83830B0
:10460800D0E7FFF78DFE081A2063F6E70021284659
:10461800FFF732FE01280ED10223EFE7626B39461D
:104628000120FFF7ADFE012805D10323E6E70021AD
:104638002046FFF721FE431EDBB2012B06D894F873
:104648002830062B04BF002384F82830BDE8F08109
:104658000120F0E758760020607600202DE9F04F21
:1046680087B00C4607461646FFF75AFE03AA80464F
:1046780004A92068FBF7A0FE7B1E012B6AD9039BC7
:1046880063B94546012FDFF8D490DFF8D4B08CBF6A
:1046980000230123019309F5905A1AE0FBF75AFE0B
:1046A80002202BE0DBF80020BAB12B4B18688842B7
:1046B80013D1DB6F013A590202EB4323B3FBF1F349
:1046C8000344B3FBF5F205FB12320AB12B449B1AE3
:1046D80023602168B142E5D32CE0DAF80030049871
:1046E8001F4607440023092205A93846FFF7B6FCF0
:1046F800012806D00228D3D00028EAD107B0BDE8A7
:10470800F08F059A99F80030022B07D0032BC7D1F8
:10471800039B52F8233023F0704302E0039B32F8E6
:104728001330019F2168B3FA83F35B09BB4204D1BC
:104738008E42E3D826600320E0E7039B2B442944FC
:10474800434521600393DDD3049B01330493002385
:104758000393BEE7012595E77C760020E8640020F6
:104768006076002070B5304D044605F10C0694F8CB
:104778003430052B2AD8DFE803F003222F373F48CF
:104788002A6804F1300102320120FFF767FF01288F
:1047980007D00238C0B2012818D8052384F834306D
:1047A800E5E7224A236B1168E268336002EB412295
:1047B800E260E26A236102B963620123EEE7206BDB
:1047C8004FF0FF31FFF78CFD012801D0002070BDAC
:1047D800E36A3BB10223E1E7D4E90B01FFF780FD6F
:1047E8000128F3D10323D9E700212046FFF744FD30
:1047F8000128EBD10423D1E794F82830082B02D103
:10480800002384F828300120E1E794F82830084A8A
:10481800082B04BF002384F8283041F2B513012186
:10482800D1540220D3E700BFF0760020F8760020AC
:10483800E864002010B5044608B9FBF78BFD204654
:1048480010BD38B5164C002304F87A3954F80E0C0C
:1048580088421ED1207803281BD1124C03F581759C
:104868004AB941F29C0204EB05150423AB71A35825
:104878000133A35038BD04F1180000EB4320131A8C
:104888005842584104EB0514FFF7D4FF0123A371E4
:10489800F0E70133082B04F11004D7D1EAE700BF91
:1048A80088750020E86400202DE9F7430E4641682A
:1048B800C1F308033344B3F5007F044603D23144FF
:1048C800616001203FE0FFF79BFB0378022B01D1D9
:1048D8006168F4E7214A41F21023D358B6EB432F1D
:1048E8004FEA432837DC41F218234768D3581F4062
:1048F8007B42B3422FDCF31943451FD3237E006963
:1049080013F0080522D041F29413451C52F8039085
:10491800A94534BF00200120FFF78CFFA94506BF39
:1049280000230193019523696361019B23616368F7
:104938004344DB1BA6EB080663603E442046FBF7B6
:1049480015FD0028C4D003B0BDE8F08301A9FFF726
:104958006FFC0128E7D00020F5E700BFE8640020DD
:1049680070B504460E461546FFF79EFF20B10DB1FF
:104978002046A847012007E094F82800022320B920
:10498800C4E90B5684F8283070BD1846FCE7D0E916
:10499800013210B59A422CBF82608360FFF730FB6A
:1049A8000022436A4261BDE810400361426011463B
:1049B800D6E708B54422002111483EF082FE114B8B
:1049C8000F4841F2D2124FF6FF71995241F2D012BC
:1049D800032199541A78022A18BF0A4641F2B811DD
:1049E8005A5441F21C22995841F2DC12995041F272
:1049F800D11210219954FFF7CAFF012008BD00BF4A
:104A0800A0760020E86400202DE9F04F4768DFF821
:104A180094B185B0044688461646C7F308074FF098
:104A28000009BEB1C7F5007594F91AA0B54228BFB0
:104A38003546BAF1FF3F204610D0FBF7CFFC544B68
:104A480041F2180203EB0A118A58904200F09B8049
:104A5800FBF780FC484605B0BDE8F08FFBF786FC05
:104A680020B3237E1A0772D594F828100629F1D0AE
:104A7800FFF77AFC474B1B68984205D9444A41F234
:104A8800B5130121D154E5E7434B1B78002BE1D145
:104A98000029DFD1062384F82830636984F83810A8
:104AA800E3622046FFF776FD0128D3D12046FBF7C5
:104AB80095FC6268C2F308038246002B5FD122F49A
:104AC800FF71A36821F0010101F5007199422CBF23
:104AD80006210721237E03F00C030C2B51D10192F0
:104AE800FFF742FC019A01380240FFF719FCDBF896
:104AF80000305843A0EB52230A46504603A9FFF75B
:104B0800ADFA0128A6D10398FBF7A0FCA07603987C
:104B180000289FD02A46414638443EF0E7FB002251
:104B280029462046A944FFF71BFF002892D0237E80
:104B38001B0708D5194B20691B6898422CBF002019
:104B48000120FFF777FE761BA844002769E7124B80
:104B58001B78002B7FF47EAF94F82830002B7FF46D
:104B680079AF84F8343008220D4B84F828201B686C
:104B78006269E26223632046FFF7F4FD94E70721A8
:104B8800A8E70023B8E7183303EB4A230393BEE7EB
:104B9800E8640020607600209D7600207C76002066
:104BA800FC760020F876002070B50378023B012BD4
:104BB80004461CD8237E990623D42046FFF720FA02
:104BC800237E1A070AD51F4E41F29815705DC31F40
:104BD80058425841FFF72EFE0023735500232370D7
:104BE80084F82830E36A5BB1BDE870401847037E5B
:104BF80013F0060FDED00121FFF73EFB0128D9D0C4
:104C080070BDE2691049002318014058824211D151
:104C18000C4903F5817201EB0213DB79C3F34503F9
:104C2800012B0BD8002301EB0212D17963F3460163
:104C3800D171C2E70133082BE6D1BEE7013B03F08F
:104C48003F03F0E7E86400200075002010B580B14C
:104C5800027872B190F828206AB9D0E90124944208
:104C68002CBF84608260032280F82820C162FFF78D
:104C78009BFF012010BD0020FCE72DE9F347DFF87A
:104C88002091044609F1080A94F83850032D00F2DF
:104C98008280DFE805F002106F782046FFF762FD9A
:104CA800012802D184F83800EEE7022874D10323E2
:104CB80084F83830E8E723786668022B18BFDAF8FA
:104CC8000030204618BF1E40FBF788FBC6F34F266E
:104CD8000746361A0023022201A93846FFF7BEF913
:104CE80006EB070801281FFA88F8054654D10198F1
:104CF8004FF4007200213EF0E4FCE36903B36368FB
:104D0800F3B9019B4FF020322E211A605A601970B6
:104D1800C3F80720606A5883C0F30F4510201A6251
:104D28005A6283F8201083F82110D872C3F827201C
:104D3800E26B9D82C2F30F4199865A8783F82B0054
:104D4800D9F800104B1E984508D24FF40071204640
:104D5800FFF7AAFDFFF76EFD0137BBE7C1EBC151B5
:104D6800490201F500712046FFF79EFDFFF762FD3D
:104D780002239DE7002384F82830236C0BB12046DA
:104D88009847012508E0236C002084F8280003B127
:104D98009847022500E00025284602B0BDE8F087C4
:104DA800F8760020B1F904300F2B2DE9F3410446C1
:104DB8000D4616460BD14FF40071FFF775FD18B973
:104DC800002002B0BDE8F0814FF6FF73AB802046AB
:104DD800FBF704FB94F91B20531C074611D01F4B0B
:104DE80041F2180103EB021041588F4230D0FBF713
:104DF800B1FA2046FBF7BAFA0028E1D00023336065
:104E080024E02046FBF7B2FA80460028F1D1381E8C
:104E180018BF0120FFF70EFD4346112201A93846AD
:104E2800FFF71CF90128E4D10198FBF70FFBE076A6
:104E3800019A002ADDD0AB8801331BB2AB8002EBAC
:104E4800431333602046FBF7C9FA28600120B8E70E
:104E5800183303EB42230193EAE700BFE86400201C
:104E68002DE9F043924D87B0044605F1280694F8E1
:104E78003030042B11D8DFE813F01300050054007C
:104E8800D000160104F11C0801AA41462846FFF784
:104E980089FF01280ED002283ED007B0BDE8F08374
:104EA8002846FFF774FD4FF6FF732384012384F827
:104EB8003030DCE7019F0FB13B7863B92846FFF734
:104EC8009FF8237ED9062AD5FFF761FD4FF6FF73B9
:104ED80023840223EBE70B2204F1310138463EF02C
:104EE8003FFC0028D0D1BA8A7B8B43EA0243714A3F
:104EF80063621268FB69A3605202B3FBF2F102FB22
:104F0800113109B113445B1AE360FB7A63762846D2
:104F1800FFF776F80323CAE72846FFF771F804235A
:104F2800C5E73378002BB8D1634F04F11C09A7F10A
:104F380038085F4801AA4946FFF734FF01284BD1DA
:104F4800019878B30378E52B01D0002BF1D1FBF75A
:104F58007DFA5A4F07EB0010FBF764FA07F5D0709B
:104F6800FFF74EF82022002101983EF0AAFB2346C5
:104F7800019A53F8311F11605968516019891181DC
:104F88009B7A9372019B627EDA7203A837F097FAD4
:104F9800019B20BB6FF07E021A7447225A749873E3
:104FA800D87335E02B78022BB9D03278002AB6D1E5
:104FB80009233370424B3A70C3E9002253F8281C86
:104FC80003F8082C1A6A43F8101C43F80C2C4046C6
:104FD800FFF753FE0128ACD00228A0D05DE79DF86A
:104FE8000E109DF80F2042EA4112BDF80C10A1F2F4
:104FF800BC7142EA41221A829DF810209DF81110D6
:10500800D20242EA41129DF8121042EA5102DA81B4
:105018001A8A1A83DA89DA827CE7237E9A0608D507
:10502800E0690023112202A9FFF718F801287FF48C
:1050380034AF2046FFF7ABFC2269237E8AB91B07F1
:1050480008D5204A41F29813D15C00297FF425AF96
:105058000721D154002384F82830E36A2046984772
:105068001BE703F0F70113F00403E26A217607D087
:105078000023A16884F828302046FFF771FC0CE76C
:105088001229E7D1A263626A84F83C300421C4E99A
:105098000B22C4E9023384F8281063636362204654
:1050A800FFF775FCF9E60020E36A2070D7E700BF38
:1050B800A0760020F8760020D87600200075002021
:1050C800DC760020E86400202DE9F34703780446E5
:1050D8006BB190F82830013B082B08D8DFE803F0C3
:1050E800050A5C6C5F7007737600FFF7B9FE02B0C3
:1050F800BDE8F087374B4668DFF8DC9041F21022B4
:105108009A584FEA422841F218229B581E40216BB8
:10511800204606EB010AFBF729F9D045074635D8A2
:1051280070B1D4E901329A422CBFA260A360002377
:1051380084F82830E36A002BD9D020469847D6E770
:10514800237E20691B071BD5D9F800A0451CAA455A
:1051580034BF00200120AA4508BF3D46FFF76AFB7F
:10516800019523696361019B2361636843449B1B29
:105178006360236BA3EB08031E4426630026C6E77F
:1051880001A9FFF755F80128EBD0B0E763680028BC
:10519800C7D119446160C4E7FFF706FDA7E70121FD
:1051A800FFF76AF90128A2D10023216C84F828307E
:1051B8002046FFF74BFD9AE70021FFF75DF996E7D8
:1051C800FFF7E8F993E7FFF7CDFA90E7FFF755FD0A
:1051D8008DE700BFE86400207C760020F8B504461F
:1051E8000E461746002144221D463EF06AFA4FF645
:1051F800FF7363830123304984F8283025763046CD
:105208003AF0DEF928BB2D4B41F2DC129A58626263
:1052180041F2C4129A58E26003F58E521268A260F5
:1052280041F2D1129A5C627641F2B8129B5C23700B
:10523800069BE362204930463AF0C2F900280CBFC9
:1052480003230023204684F83030FFF709FE204668
:10525800F8BD04F1310304F1390230462021057804
:105268000DB12E2D16D1197001339342F7D1027862
:105278002E2A08BF013004F13C012025027892B99A
:105288001D7001338B42F9D1FB0667764CBF0323AF
:105298000123CCE7A5F1610CBCF1190F98BF203DA3
:1052A8001D700130E0E7A2F1610CBCF1190F98BF45
:1052B800203A1A700130E4E713B50408E8640020C6
:1052C80038B5134C0023A07BE0B125688D4219D175
:1052D800104C03F581751AB904EB0514A27138BD99
:1052E80004F1180101EB43239A4209D1831E584265
:1052F800584104EB0514FFF79DFA0123A371EEE76B
:105308000020F6E70133082B04F11004DBD1E6E7AF
:1053180000750020E8640020034BD3F8D80408B1D6
:10532800C3691847704700BF684A002038B50D4662
:105338001446FFF7F1FF03682B604FF400732360F6
:10534800002038BD034BD3F8D80408B18369184747
:10535800704700BF684A0020034BD3F8D80408B14F
:1053680043691847704700BF684A0020034BD3F8C9
:10537800D80408B103691847704700BF684A00207D
:105388002DE9F047DFF844900E4614461F460025E5
:10539800AF4217DD06EB452801E0FFF7E7FFD9F834
:1053A800D83443B1D3F80CA000231A46414620460E
:1053B800D0470028F1D1FFF7D9FF0028FBD00135ED
:1053C8000134E5E70020BDE8F08700BF684A002007
:1053D8002DE9F047DFF840800F4614461E460025A9
:1053E800AE4202DC0020BDE8F08707EB452AD8F87A
:1053F800D83403B9FEE7D3F8049000231A4651467F
:105408002046C8470028F2D0FFF7B0FF0028FBD09D
:1054180001350134E4E700BF684A002008B5FFF70A
:10542800A5FF80F00100404240B208BD08B5002049
:10543800FCF744FF084B094A03F53171C2F8D81448
:10544800D3F8C4329847FFF791FF0028FBD001201A
:10545800FCF734FF002008BD00000020684A002047
:1054680008B5054B186D28B136F0F1F880F0010049
:10547800C0B208BD0120FCE78017002010B5FFF777
:10548800EFFF0C4C18B9002384F8243010BD94F8B1
:105498002430032B03D9606D002136F0B3FB237E43
:1054A8000133DBB2072B2376EDD8D4F8E0386361FB
:1054B8000123E9E78017002070B51A4C94F82430CE
:1054C800042B05460E4610D1FBF7AAFB0021372016
:1054D800FBF716FB31461720FBF712FB88B1FBF7E9
:1054E80081FCFFF7CBFF032002E0082B01D001204D
:1054F80070BDE369834211D0FBF7BEFA0228F6D1EA
:10550800E2E7A37E63B969021920FBF7F9FA0028DC
:10551800E5D1C4E90756082384F824300220E7E7D8
:105528002946F1E7801700202DE9F743244F054667
:105538000E46914698463C4697F82430042B0AD0EC
:10554800082B06D1FB69AB4218D0FBF795FA022865
:10555800F2D001200DE0FBF763FBBB7E63B9690263
:105568001820FBF7CDFA48B1FBF73CFCFFF786FFA4
:10557800032003B0BDE8F0832946F1E794F824300E
:10558800606D082B0CBFFC23FE23FF228DF804203E
:105598008DF8053001AA0223002136F011FB802383
:1055A800606D3246002136F00BFB0123237206237F
:1055B800C4E90065C4E9039884F824300020D8E7DA
:1055C800801700202DE9F043C44C606D85B0002899
:1055D80000F08081C24D04F1400694F82430013B6C
:1055E800082B00F26281DFE813F009003C00C000DC
:1055F800600181010D0148016001AE01FBF710FB5C
:1056080000210846FBF77CFA0746FBF7EBFB012F66
:1056180040F04B814FF0000884F81980FBF700FB3D
:1056280040F2AB110820FBF76BFA05280AD1677620
:10563800FBF7D8FB637E002B00F02E81022384F851
:105648002430CAE70128F3D10423606D4246694635
:1056580036F0B6FA9DF80330AB2B04BF022363760D
:10566800E6E7FBF7DDFA637E022B0CBF4FF08047BD
:10567800002700213720FBF743FA39462920FBF79A
:105688003FFA0746FBF7AEFB002F40F00E81637E22
:10569800022B37D1FBF7C4FA39463A20FBF730FA28
:1056A800042380463A466946606D36F089FAFBF76E
:1056B80099FBB8F1000F02D0FFF7E0FE8DE7009BE1
:1056C8001BBAC3F38073A376FBF7AAFA002109205B
:1056D800FBF716FA98B910213046FBF7F1F9804626
:1056E80068B901217F20FAF74BFD0128074606D14A
:1056F80002214046FAF744FD30B101282AD0FBF7D1
:1057080071FBD2E0A776DFE704212C20FAF738FDF9
:10571800032181464E20FAF733FD0C2180463620BE
:10572800FAF72EFD08F10208431C03FA08F307FAFA
:1057380009F0A3FB0001430A43EAC153A362FBF744
:1057480051FBFBF76DFA00210A20FBF7D9F948B99C
:10575800032374E716213A20FAF712FD013080027C
:10576800A062ECE7FBF73EFBA6E710216846FBF7D3
:10577800A7F9002840F099809DF800309DF8012095
:1057880084F82E309DF8023043EA0223A3859DF861
:10579800033084F82F30019B23639DF808301A09E1
:1057A80003F00F0384F83930DDF8093084F8382025
:1057B8001BBA63639DF80D309DF80E201B01DBB208
:1057C80043EA121303F5FA6302F00F02638784F8C1
:1057D8003C20FBF707FBA37E63B9FBF721FA4FF4E4
:1057E80000711020FBF78CF90746FBF7FBFA002F36
:1057F8007FF462AF606D022136F004FA0023236261
:1058080004231CE7217A2268606D802302EBC11211
:10581800002136F0D5F9237A0133DBB2042B237249
:1058280043D102232A460021606D36F0C9F90123CD
:10583800606D0022694636F0C3F99DF8003003F028
:105848001F03052B0DD10723E56884F82430D4F80D
:10585800E03863614DB3D4E9002123690120A847EA
:1058680023E0FFF70BFEE768002F3FF4B6AE23698D
:10587800616800220120B847AFE6FBF7CFF800289F
:1058880068D000232376236A012B08D9013B2362C1
:10589800E3690133E361082384F8243005E021D16A
:1058A800FBF7EAF802283FF42AAF94F82430013BCA
:1058B800022B07D8D4F8E03862699B1AC82B01D9A3
:1058C800FFF7DCFD94F8240004284BD0A0F108036E
:1058D8005842584105B0BDE8F08300BF801700204A
:1058E8000B3A0408042384F8243008E720684FF4AE
:1058F8000071FBF7E5F80128074611D0022815D0FA
:105908000028D2D1FBF76EFAE5682776042384F8DD
:105918002430002DC9D0D4E90021236938469EE7F8
:105928006369D4F8E02864339342BED2FBF75AFA8D
:10593800FFF7A4FDE768002F3FF44FAE002223696C
:105948006168104697E7FBF769F818B1FBF74AFA60
:105958000423A1E76369D4F8E028FA339342FFF4FB
:10596800ABAEA2E70120B5E7F0B51D4D95F8F261A1
:10597800C3B004460F46002EFDD1012385F8F2314D
:10598800FBF788FAFF2C4FF009038DF8054088BF14
:10599800A4088DF8043088BF04F0C00601AB0022CB
:1059A8000A240B2046EA0201D970B95C9C700132C6
:1059B800362A1871597103F10403F3D14AF2080326
:1059C800ADF8DE3001AADC230021D5F8EC0136F071
:1059D800F7F8FCF75DFC002385F8F23143B0F0BD21
:1059E80078280020F8B51D4C94F8F23105460F468A
:1059F800002BFDD1012384F8F231FBF74BFAEAB210
:105A080006460921D4F8EC0135F0E6FFB5F5807FAC
:105A180005D1D4F8EC0140220A2135F0DDFF5022EF
:105A28000821D4F8EC0135F0D7FFFCF731FC00254C
:105A3800EAB20A21D4F8EC0135F0CEFF7A19D4F88D
:105A4800EC01C021013535F061FF362DF0D10EB9DA
:105A5800FBF720FA002384F8F231F8BD78280020FB
:105A68002DE9F04F6D4B6E4E93F8F411A9B00A234F
:105A780000200393024603460DF114094FF0050A6E
:105A88004FEA521E664D02F01F0205EB8E0C4FF0D6
:105A9800FF3455F82E5004FA02F707EA050292FA85
:105AA800A2F2B2FA82F2D2B2202A6DD002EB4E12E2
:105AB8005C4D05EB4205C2F3072CB5F8184595F87F
:105AC8001855019415F0040F4FEA14240294D7B224
